:100000000C946D000C9495000C9495000C9438069B
:100010000C9438060C9438060C9495000C949500BA
:100020000C9495000C9495000C9495000C949500FC
:100030000C9495000C9495000C9495000C949500EC
:100040000C94EE050C9495000C942F030C9409036A
:100050000C9495000C9495000C9495000C949500CC
:100060000C9495000C9495001E0424042E043C046A
:100070003E0444044E045C046E047004000000005E
:10008000240027002A0000000008000201000003ED
:100090000407000000000000000000000000250030
:1000A00028002B0000000000230026002900040483
:1000B0000404040404040202020202020303030310
:1000C00003030102040810204080010204081020EC
:1000D000010204081020070BDF0A11241FBECFEF16
:1000E000D8E0DEBFCDBF24E0A4EBB1E001C01D929B
:1000F000A835B207E1F711E0A0E0B1E0E4EDFEE1E0
:1001000002C005900D92A43BB107D9F710E0CCE6F0
:10011000D0E004C02197FE010E94370DCB36D107F5
:10012000C9F70E9424090C945D0F0C940000FC0197
:10013000538D448D252F30E0842F90E0821B930B4C
:10014000541710F0CF96089501970895FC01918DF2
:10015000828D981761F0828DDF01A80FB11D5D9629
:100160008C91928D9F5F9F73928F90E008958FEF97
:100170009FEF0895FC01918D828D981731F0828D4B
:10018000E80FF11D858D90E008958FEF9FEF0895A2
:10019000FC01918D228D892F90E0805C9F4F821B06
:1001A00091098F73992708958BE092E00E94C8000F
:1001B00021E0892B09F420E0822F0895FC01848D31
:1001C000DF01A80FB11DA35ABF4F2C91848D90E081
:1001D00001968F739927848FA689B7892C93A0895C
:1001E000B1898C9180648C93938D848D981306C013
:1001F0000288F389E02D80818F7D80830895EF92BE
:10020000FF920F931F93CF93DF93EC0181E0888FD0
:100210009B8D8C8D981305C0E889F989808185FDB7
:1002200024C0F62E0B8D10E00F5F1F4F0F731127A8
:10023000E02E8C8DE8120CC00FB607FCFACFE889CF
:10024000F989808185FFF5CFCE010E94DE00F1CFD4
:100250008B8DFE01E80FF11DE35AFF4FF0820B8FEB
:10026000EA89FB898081806207C0EE89FF8960830B
:10027000E889F98980818064808381E090E0DF9162
:10028000CF911F910F91FF90EF900895CF93DF933F
:10029000EC01888D8823C9F0EA89FB89808185FD7E
:1002A00005C0A889B9898C9186FD0FC00FB607FCDF
:1002B000F5CF808185FFF2CFA889B9898C9185FF20
:1002C000EDCFCE010E94DE00E7CFDF91CF91089500
:1002D00080E090E0892B29F00E94D40081110C94D9
:1002E0000000089520910502309106022817390771
:1002F00071F49091030280910402981741F0E0910B
:100300000302F0E0E254FE4F808190E008958FEF09
:100310009FEF089508951F93CF93DF93DC015C96C0
:100320002D913C915D972115310539F481E090E0E4
:1003300013969C938E9312973DC05196ED91FC912C
:10034000529750969C915097892F80951FB75E9633
:100350004C915E9741FB772770F941FD6095F894C9
:100360004081772311F0492B01C048234083E901E4
:100370002197F1F748E0508160FF02C0592B01C07E
:1003800058235083E9012197F1F76695415099F779
:10039000772321F090818923808303C08081982B6B
:1003A00090831FBF5C968D919C915D970197F1F7AB
:1003B00021E030E0C901DF91CF911F910895209194
:1003C0000502309106022817390771F48091040262
:1003D0002091030290E0805C9F4F821B910960E4B2
:1003E00070E00E94040D089580E090E0089520914F
:1003F00005023091060228173907B9F490910302DB
:1004000080910402981789F0E0910302F0E0E25431
:10041000FE4F80812091030230E02F5F3F4F2F730A
:1004200033272093030290E008958FEF9FEF089504
:10043000089580E090E008950E94480FFF920F9386
:100440001F93CF93DF93CDB7DEB728970FB6F894FD
:10045000DEBF0FBECDBFFF24F39481E094E00E9485
:10046000DF016DE771E0181619060CF0BCC0CE0173
:1004700001960E9431080E943F0797FD1EC08A30F6
:100480009105D9F08F8318860D811E810F5F1F4F54
:10049000B801CE0101960E94BE07882361F329812D
:1004A0003A818D819E81BE01695F7F4F820F931FCC
:1004B0000E94560F1E830D83DECFBE016F5F7F4FFC
:1004C0008AEF93E00E94850789819A810E94E60D58
:1004D0006091FE037091FF036115710509F476C008
:1004E000E091FA03F091FB03309709F46FC080812B
:1004F0008635A1F5F092BD01CE0101960E94460815
:10050000BE016F5F7F4F84EF93E00E948507898172
:100510009A810E94E60D8091F4039091F503009773
:1005200019F00E946F0C03C060E070E0CB01609393
:10053000B4017093B5018093B6019093B7016AE25C
:1005400071E08BE092E00E9489086091B4017091A3
:10055000B5018091B6019091B70135C08834B1F5ED
:10056000F092BC01CE0101960E944608BE016F5F69
:100570007F4F84EF93E00E94850789819A810E94D2
:10058000E60D8091F4039091F503009719F00E9415
:100590006F0C03C060E070E0CB016093B801709312
:1005A000B9018093BA019093BB0163E471E08BE0E1
:1005B00092E00E9489086091B8017091B901809120
:1005C000BA019091BB010E949E0847CF6EE571E091
:1005D0008BE092E00E9489086BE771E08BE092E08B
:1005E0000E9489083ACF8AEF93E00E9410086DE7D5
:1005F00071E084EF93E00E94100828960FB6F894FB
:10060000DEBF0FBECDBFDF91CF911F910F91FF9045
:1006100008951F920F920FB60F9211242F933F93BC
:100620004F935F936F937F938F939F93AF93BF93FA
:10063000EF93FF938BE092E00E94DE00FF91EF9139
:10064000BF91AF919F918F917F916F915F914F91EA
:100650003F912F910F900FBE0F901F9018951F92F2
:100660000F920FB60F9211242F938F939F93EF93B6
:10067000FF93E0911B02F0911C028081E091210226
:10068000F091220282FD12C09081809124028F5F3E
:100690008F7320912502821751F0E0912402F0E03F
:1006A000E55FFD4F958F8093240201C08081FF910B
:1006B000EF919F918F912F910F900FBE0F901F90F0
:1006C000189590E0FC01EA57FF4F3491FC01EE537E
:1006D000FF4F2491FC01E255FF4FE491EE2309F412
:1006E0003BC0332339F1333091F038F43130A9F085
:1006F000323001F584B58F7D12C0373091F038303B
:10070000A1F03430B9F4809180008F7D03C08091D6
:1007100080008F77809380000DC084B58F7784BD73
:1007200009C08091B0008F7703C08091B0008F7DA9
:100730008093B000F0E0EE0FFF1FE656FF4FA5914B
:10074000B4918FB7F894EC91611103C020952E23DA
:1007500001C02E2B2C938FBF08950F931F93CF931F
:10076000DF93EC018B01888599850297F1F4613064
:10077000710569F024F4672BC1F460E009C06230B0
:10078000710559F06330710581F460E007C061E0E4
:100790008C850E94610361E005C061E08C850E9448
:1007A000610360E08E850E946103888599850497C6
:1007B000B9F501301105B1F04CF40115110581F5C1
:1007C00061E08C850E94610360E011C00230110578
:1007D000B9F00330110521F561E08C850E946103B9
:1007E00060E013C060E08C850E94610361E08E854B
:1007F0000E94610361E088890E94610360E00DC08E
:1008000060E08C850E94610361E08E850E94610337
:1008100060E088890E94610361E08A890E94610327
:1008200088859985059709F073C00A30110508F08D
:100830006FC0F801EC5CFF4F0C94370D60E08C85C5
:100840000E94610361E051C060E08C850E946103F9
:1008500061E08E850E94610360E04BC060E08C85A2
:100860000E94610361E08E850E94610360E08889D7
:100870000E94610361E041C060E001C061E08C85DD
:100880000E94610361E005C061E08C850E94610304
:1008900060E08E850E94610360E009C061E08C85A4
:1008A0000E94610360E08E850E94610361E0888997
:1008B0000E94610361E00DC061E08C850E946103CC
:1008C00060E08E850E94610361E088890E94610377
:1008D00060E08A890E94610360E013C061E001C0AA
:1008E00060E08C850E94610360E08E850E94610358
:1008F00061E088890E94610360E08A890E94610347
:1009000061E08C89DF91CF911F910F910C9461036D
:10091000DF91CF911F910F910895CF93DF9390E0D6
:10092000FC01EE53FF4F2491FC01E255FF4F8491EF
:10093000882361F190E0880F991FFC01E458FF4F74
:10094000C591D491FC01E656FF4FA591B491611178
:1009500009C09FB7F8948881209582238883EC9101
:100960002E230BC0623061F49FB7F8943881822F38
:10097000809583238883EC912E2B2C939FBF06C0F8
:100980008FB7F894E8812E2B28838FBFDF91CF910A
:1009900008953FB7F8948091FF0190910002A091D3
:1009A0000102B091020226B5A89B05C02F3F19F0A5
:1009B0000196A11DB11D3FBFBA2FA92F982F8827DF
:1009C000820F911DA11DB11DBC01CD0142E0660F3A
:1009D000771F881F991F4A95D1F708958F929F928C
:1009E000AF92BF92CF92DF92EF92FF926B017C01A8
:1009F0000E94C9044B015C01C114D104E104F1045B
:100A0000F1F00E94C904DC01CB0188199909AA09F7
:100A1000BB09883E9340A105B10570F321E0C21ADD
:100A2000D108E108F10888EE880E83E0981EA11C29
:100A3000B11CC114D104E104F10419F7DDCFFF901A
:100A4000EF90DF90CF90BF90AF909F908F900895E0
:100A50004F925F926F927F928F929F92AF92BF92CE
:100A6000CF92DF92EF92FF920F931F93CF93DF937A
:100A7000EC018B0177FF04C000271127061B170B21
:100A8000161617062CF481E090E09983888304C041
:100A9000672B11F01982188284E0E82EF12C9AE07D
:100AA000C92ED12C0115110509F449C00E94C904B1
:100AB0008E889F88A88CB98C2B013C014818590856
:100AC0006A087B088A809B80AC80BD8048145904EA
:100AD0006A047B0438F36E8B7F8B888F998F288113
:100AE00039818A859B852130310559F401969B8790
:100AF0008A872E813F818217930771F41B861A869D
:100B00000BC0892B21F48E819F819B878A878A85E0
:100B10009B8501979B878A87015011092885398514
:100B20008A859B852530310511F4B60101C0B701D6
:100B30000E94040DBC01CE010E94AD03B3CFDF9132
:100B4000CF911F910F91FF90EF90DF90CF90BF90CA
:100B5000AF909F908F907F906F905F904F9008958F
:100B60008091BD018823D9F06091B4017091B501E5
:100B70008AE394E00E9428056EE771E08BE092E042
:100B80000E9489086091B4017091B5018091B6010D
:100B90009091B7010E949E081092BD010895809126
:100BA000BC018823D1F06091B8017091B90180E255
:100BB00094E00E94280568E971E08BE092E00E94D1
:100BC00089086091B8017091B9018091BA01909142
:100BD000BB010E949E081092BC0108951F920F92C3
:100BE0000FB60F9211242F933F938F939F93AF9340
:100BF000BF938091070290910802A0910902B091E1
:100C00000A023091FE0123E0230F2D3720F40196D4
:100C1000A11DB11D05C026E8230F0296A11DB11D1F
:100C20002093FE018093070290930802A09309028B
:100C3000B0930A028091FF0190910002A0910102FD
:100C4000B09102020196A11DB11D8093FF01909306
:100C50000002A0930102B0930202BF91AF919F9155
:100C60008F913F912F910F900FBE0F901F9018956D
:100C70001F920F920FB60F9211242F933F934F9311
:100C80005F936F937F938F939F93AF93BF93EF93F4
:100C9000FF93E0910502F0910602309709F451C0EC
:100CA000968DA685B785858591FF04C09C91892383
:100CB00029F447C09C91892309F043C0A389B489D2
:100CC0009C918589809589238C9386899789019742
:100CD000F1F7608D718DA685B785558538E020E0E8
:100CE000CB010197F1F7822F90E095958795282FFA
:100CF0004C91452309F02068315091F7868D81FD94
:100D000020958091040290E001968F73992730918D
:100D10000302381749F0A0910402B0E0A254BE4F7C
:100D20002C938093040203C0868D8160868F828D10
:100D3000938D0197F1F7A389B4899C918589892BBB
:100D40008C93FF91EF91BF91AF919F918F917F9184
:100D50006F915F914F913F912F910F900FBE0F9028
:100D60001F9018950895CF92DF92EF92FF920F9304
:100D70001F93CF93DF936C017A018B01C0E0D0E029
:100D8000CE15DF0589F0D8016D918D01D601ED9169
:100D9000FC910190F081E02DC6010995892B11F499
:100DA0007E0102C02196ECCFC701DF91CF911F9148
:100DB0000F91FF90EF90DF90CF900895EBE0F2E07D
:100DC000A089B18982E08C93A485B5851C92A68503
:100DD000B78580E18C93108EA489B58986E08C93C9
:100DE000A289B3898C9180618C93A289B3898C91FB
:100DF00088608C93A289B3898C9180688C930288D7
:100E0000F389E02D80818F7D808308950F931F9358
:100E1000CF93DF93ECEFF2E020E030E04081442319
:100E200001F1E9012DE02C9F80012D9F100D11246F
:100E300000511D4F21E0F8012287918380830E9499
:100E4000C904F801668377838087918780E29EE4F6
:100E5000A0E0B0E082839383A483B58313861486D5
:100E600008C02F5F3F4F3D9624313105B9F6CFEFD3
:100E7000DFEFCE01DF91CF911F910F9108952FB732
:100E8000F8948091070290910802A0910902B09114
:100E90000A022FBF8093090490930A04A0930B04C5
:100EA000B0930C04E0910104F09102040284F385F4
:100EB000E02D81E094E0099597FF26C02FB7F894C4
:100EC0008091070290910802A0910902B0910A0254
:100ED0002FBF4091090450910A0460910B04709156
:100EE0000C04841B950BA60BB70B40910504509185
:100EF0000604609107047091080484179507A607FB
:100F0000B70780F28FEF9FEF08950F931F93CF9352
:100F1000DF938C01EB01FC01808191810097B1F09E
:100F2000688179816115710579F0428153812C8145
:100F30003D814217530740F00E94560F8C819D81DE
:100F4000F8019583848313C00E94E60D88819981FE
:100F5000F801918380838A819B81938382838C8132
:100F60009D8195838483198218821B821A821D8237
:100F70001C82DF91CF911F910F9108950F931F93C2
:100F8000CF93DF93EC0188819981009729F02A8122
:100F90003B812617370788F48B016F5F7F4F0E94D4
:100FA0007E0E009761F0998388831B830A832C81CE
:100FB0003D81232B11F4FC01108281E001C080E00F
:100FC000DF91CF911F910F910895EF92FF920F93B0
:100FD0001F93CF93DF93EC017B018A01BA010E943A
:100FE000BE072881398181110DC02115310519F005
:100FF000C9010E94E60D198218821D821C821B8283
:101000001A8206C01D830C83B701C9010E94560FC6
:10101000CE01DF91CF911F910F91FF90EF90089536
:10102000CF93DF93EC016115710559F0FB0101903D
:101030000020E9F73197AF01461B570B0E94E507E7
:101040000CC088819981009711F00E94E60D1982E9
:1010500018821D821C821B821A82CE01DF91CF91E1
:101060000895FC011182108213821282158214826B
:101070006115710551F0FB0101900020E9F73197EE
:10108000AF01461B570B0C94E5070895DF92EF92D2
:10109000FF920F931F93CF93DF937C01EB01209777
:1010A00029F400E010E0C1E0D0E002C001E010E06F
:1010B0006DE771E0C7010E9431088091FE039091B5
:1010C000FF0308171907E0F48C179D0708F4EC01DB
:1010D000E091FA03F091FB03EC0FFD1FD08010822A
:1010E0006091FA037091FB03600F711FC7010E94AA
:1010F00010088091FA039091FB03C80FD91FD88282
:10110000C701DF91CF911F910F91FF90EF90DF907A
:1011100008956115710579F0FB0101900020E9F750
:101120003197AF01461B570BDC01ED91FC9102801A
:10113000F381E02D099480E090E008958F929F92D2
:10114000AF92BF92CF92DF92EF92FF920F931F93D5
:10115000CF93DF93CDB7DEB7A1970FB6F894DEBF7C
:101160000FBECDBF6B017C0197FF33C0E0910B0236
:10117000F0910C020190F081E02D6DE28BE092E0A5
:1011800009958C0122273327A9012C193D094E0905
:101190005F0919A2CE0181967C019AE0892E912CDB
:1011A000A12CB12CCA01B901A50194010E94AB0C7C
:1011B000605DF70162937F012115310541055105FD
:1011C00089F7BF018BE092E00E948908080F191F80
:1011D00020C09B01AC0119A28E010F5D1F4F8AE058
:1011E000C82ED12CE12CF12CCA01B901A70196011E
:1011F0000E94AB0C605DF80162938F0121153105EF
:101200004105510589F7BF018BE092E00E948908F2
:101210008C016BE771E08BE092E00E948908800FFF
:10122000911FA1960FB6F894DEBF0FBECDBFDF9120
:10123000CF911F910F91FF90EF90DF90CF90BF90D3
:10124000AF909F908F900895789484B5826084BD0C
:1012500084B5816084BD85B5826085BD85B58160BA
:1012600085BD80916E00816080936E001092810038
:1012700080918100826080938100809181008160F3
:1012800080938100809180008160809380008091B4
:10129000B10084608093B1008091B0008160809340
:1012A000B00080917A00846080937A0080917A0007
:1012B000826080937A0080917A00816080937A00C6
:1012C00080917A00806880937A001092C100109219
:1012D000EC021092ED021092EE021092EF021092C8
:1012E000AA021092AB021092AC021092AD0268EB0F
:1012F0007BE080E090E00E94EE048BE092E090932F
:10130000EB028093EA020E94DE062FB7F8948091E8
:10131000070290910802A0910902B0910A022FBF22
:101320008093AA029093AB02A093AC02B093AD025B
:101330006CE671E08091EA029091EB020E948908CC
:101340006AE070E080E090E00E94EE0481E080932B
:10135000BE022091400430914104032E000C440B46
:10136000550BC12C87E8D82E83E9E82E83E0F82EB0
:10137000C701B6010E94180D90EF892E912CA12C67
:10138000B12CCA01B901A50194010E94180D209346
:101390003C0430933D0440933E0450933F0400913D
:1013A0002604109127049801110F440B550BC70117
:1013B000B6010E94180DCA01B901A50194010E944D
:1013C000180D209322043093230440932404509357
:1013D00025040E94DE0610921C0410921B04109239
:1013E0001A041092190410921804109217048FE135
:1013F00090E090931E0480931D0490910D0496310B
:1014000008F057C021E030E030931804209317040F
:101410002DE130E030931A04209319042DE030E0E0
:1014200030931C0420931B0420916800983050F0E6
:1014300031E09E3008F430E081E001C0880F3A9539
:10144000EAF701C084E0822B80936800983038F07E
:101450009E3040F0963148F020E030E008C02DE6A4
:1014600030E005C02BE630E002C02CE630E03093DF
:10147000150420931404983030F481E001C0880FE3
:101480009A95EAF70EC0292F30E09E3018F42850C4
:10149000310902C02E50310981E001C0880F2A9520
:1014A000EAF78093160480911D0490911E04019721
:1014B000F1F780911B0490911C04892B49F1E09174
:1014C0000502F091060224E0E130F20709F13097BD
:1014D00039F0A389B4899C918589809589238C935F
:1014E00080911F048E7F80931F041092040210923B
:1014F000030281E094E09093060280930502E0915C
:101500001404F0911504908180911604892B808336
:1015100080E197E2A0E0B0E0809305049093060498
:10152000A0930704B093080480EB95E00E9406079F
:101530008EE192E00E940607DD24D3940E94C90444
:101540000CEF12E0C0EFD2E0F801208121112DC094
:101550007801F2E0EF1AF108F7012081222329F146
:101560008E809F80A884B9842B013C0148185908BB
:101570006A087B088A809B80AC80BD8084149504B7
:10158000A604B70490F46E837F8388879987E881E7
:10159000F9810995F80131978081882321F0F701BD
:1015A0001082F801D0820E94C904035F1F4F2D965C
:1015B000F3E0C43FDF0741F60E946801BFCF80918E
:1015C000F4039091F5030E94E60D8091FA03909147
:1015D000FB030E94E60D8CE191E09093020480935E
:1015E000010480910502909106028150944071F4AB
:1015F000E0911404F0911504908180911604809577
:101600008923808310920602109205020895CF92DA
:10161000DF92EF92FF920F931F93CF93DF9310927D
:101620000E0210920D0298EEC92E93E0D92EE12CF5
:10163000F12CC0920F02D0921002E0921102F092AF
:1016400012028AE091E090930C0280930B0285ECE9
:1016500090E0909318028093170284EC90E09093AE
:101660001A028093190280EC90E090931C02809300
:101670001B0281EC90E090931E0280931D0282EC8D
:1016800090E09093200280931F0286EC90E090936C
:1016900022028093210210922402109225021092BD
:1016A0002602109227021092AE021092AF02109200
:1016B000B0021092B1021092B2021092B3021092D4
:1016C000B4021092B5021092B6021092B7021092B4
:1016D000B8021092B9021092BA021092BB02109294
:1016E000BC021092BD021092450410924404109264
:1016F0003B0410923A04109250041092510410923C
:1017000052041092530400E81CE01093410400932B
:101710004004C2E0D0E0D0934704C093460483E085
:1017200090E0909349048093480461E082E00E9435
:101730008D0461E0809148040E948D0410924B0456
:1017400010924A0410924D0410924C0410924F04CF
:1017500010924E04D0934304C093420410922B0481
:1017600010922A0410922104109220041092360440
:101770001092370410923804109239041093270401
:101780000093260484E090E090932D0480932C0431
:1017900085E090E090932F0480932E0461E084E034
:1017A0000E948D0461E080912E040E948D041092AD
:1017B00031041092300410923304109232041092CB
:1017C000350410923404D0932904C0932804109255
:1017D000040410920304C0920504D0920604E0921F
:1017E0000704F09208048CE191E090930204809346
:1017F0000104109218041092170410921A04109207
:10180000190410921C0410921B0410921E041092D2
:101810001D0460911F046E7F6D7F60931F046695A9
:10182000617081E0682787E00E94610361E087E0E2
:101830000E948D04E9ECF0E0E491E0931104E5EB03
:10184000F0E0E491F0E0EE0FFF1FE656FF4F8591C8
:101850009491909313048093120460E086E00E94B8
:101860008D0480911F0481FD04C061E086E00E9428
:10187000610386E080930D04E8ECF0E0E491E093EE
:101880000E04E4EBF0E0E491F0E0EE0FFF1FEC5506
:10189000FF4F859194919093100480930F0480E002
:1018A00090E021E0FC01E051FD4F24870D9684304B
:1018B00031E09307B9F76DE771E08AEF93E00E949A
:1018C00031086DE771E084EF93E0DF91CF911F91D4
:1018D0000F91FF90EF90DF90CF900C9431081F9301
:1018E000FC0199278827BC01E89411911032E9F393
:1018F000193010F01E30C8F31B3251F01D3249F47C
:10190000689406C00E94960C610F711D811D911D87
:10191000119110531A30B0F33EF490958095709564
:1019200061957F4F8F4F9F4F1F910895592F482FDB
:10193000372F262F660F771F881F991F660F771F77
:10194000881F991F620F731F841F951F660F771FD3
:10195000881F991F0895A1E21A2EAA1BBB1BFD0127
:101960000DC0AA1FBB1FEE1FFF1FA217B307E4077E
:10197000F50720F0A21BB30BE40BF50B661F771FD6
:10198000881F991F1A9469F76095709580959095B6
:101990009B01AC01BD01CF0108952F923F924F9260
:1019A0005F926F927F928F929F92AF92BF92CF92EF
:1019B000DF92EF92FF920F931F93CF93DF93CDB7F8
:1019C000DEB7CA1BDB0B0FB6F894DEBF0FBECDBF70
:1019D00009942A88398848885F846E847D848C8441
:1019E0009B84AA84B984C884DF80EE80FD800C814A
:1019F0001B81AA81B981CE0FD11D0FB6F894DEBF2D
:101A00000FBECDBFED01089597FB072E16F400948D
:101A100007D077FD09D00E943D0D07FC05D03EF4AC
:101A2000909581959F4F0895709561957F4F08958A
:101A3000052E97FB1EF400940E942F0D57FD07D032
:101A40000E94AB0C07FC03D04EF40C942F0D509564
:101A50004095309521953F4F4F4F5F4F089590959A
:101A60008095709561957F4F8F4F9F4F0895EE0F32
:101A7000FF1F0590F491E02D0994AA1BBB1B51E1B7
:101A800007C0AA1FBB1FA617B70710F0A61BB70BEE
:101A9000881F991F5A95A9F780959095BC01CD0193
:101AA0000895CF93DF938230910510F482E090E0A7
:101AB000E0915604F091570420E030E0C0E0D0E01F
:101AC000309711F14081518148175907C0F04817EC
:101AD000590761F482819381209719F09B838A834F
:101AE0002BC0909357048093560426C021153105CE
:101AF00019F04217530718F49A01BE01DF01EF01F4
:101B00000280F381E02DDCCF2115310509F1281B7E
:101B1000390B2430310590F412968D919C911397D6
:101B20006115710521F0FB019383828304C09093BA
:101B3000570480935604FD01329644C0FD01E20F24
:101B4000F31F81939193225031092D933C933AC016
:101B50002091540430915504232B41F4209102012B
:101B600030910301309355042093540420910001D7
:101B7000309101012115310541F42DB73EB7409157
:101B8000040150910501241B350BE0915404F091A0
:101B90005504E217F307A0F42E1B3F0B2817390753
:101BA00078F0AC014E5F5F4F2417350748F04E0FB9
:101BB0005F1F50935504409354048193919302C046
:101BC000E0E0F0E0CF01DF91CF9108950F931F93F4
:101BD000CF93DF93009709F48CC0FC0132971382F6
:101BE000128200915604109157040115110581F4D9
:101BF00020813181820F931F20915404309155042C
:101C00002817390779F5F0935504E093540471C00F
:101C1000D80140E050E0AE17BF0750F412962D9166
:101C20003C911397AD012115310509F1D901F3CF8D
:101C30009D01DA013383228360817181860F971FB2
:101C40008217930769F4EC0128813981260F371F29
:101C50002E5F3F4F318320838A819B8193838283D0
:101C6000452B29F4F0935704E093560442C0139691
:101C7000FC93EE931297ED01499159919E01240F27
:101C8000351FE217F30771F480819181840F951F4E
:101C9000029611969C938E938281938113969C93C6
:101CA0008E931297E0E0F0E0D80112968D919C910E
:101CB0001397009719F0F8018C01F6CF8D919C9144
:101CC00098012E5F3F4F820F931F20915404309153
:101CD00055042817390769F4309729F410925704EE
:101CE0001092560402C0138212821093550400937E
:101CF0005404DF91CF911F910F910895A0E0B0E0BF
:101D0000E4E8FEE00C94D10CEC01009721F4CB0147
:101D10000E94510DB8C0FC01E60FF71F9C01225034
:101D20003109E217F30708F4ACC0D9010D911C91F9
:101D3000119706171707B0F00530110508F49FC07A
:101D4000C80104978617970708F499C00250110933
:101D5000061B170B019311936D937C93CF010E9487
:101D6000E60D8DC05B01A01AB10A4C01800E911ED8
:101D7000A0915604B091570440E050E0E12CF12CC2
:101D8000109709F44AC0A815B905D1F56D907C905B
:101D90001197630182E0C80ED11CCA14DB0480F1E4
:101DA000A3014A195B096A0182E0C80ED11C129690
:101DB000BC9012971396AC91B5E0CB16D10440F0CD
:101DC000B282A38351834083D9016D937C930AC06F
:101DD0000E5F1F4FC301800F911FF9019183808314
:101DE000EB2DFA2FE114F10431F0D7011396FC9397
:101DF000EE93129744C0F0935704E09356043FC00B
:101E00008D919C9111974817590708F4AC017D01F9
:101E100012960D90BC91A02DB3CF80915404909157
:101E2000550488159905E1F446175707C8F48091C1
:101E3000000190910101009741F48DB79EB7409148
:101E4000040150910501841B950BE817F907C8F4AC
:101E5000F0935504E0935404F901718360830FC03B
:101E6000CB010E94510D7C01009759F0A801BE01E1
:101E70000E944D0FCE010E94E60DC70104C0CE01A5
:101E800002C080E090E0CDB7DEB7EEE00C94ED0C40
:101E900081E090E0F8940C945D0FFB01DC0102C03E
:101EA00001900D9241505040D8F70895FB01DC019C
:101EB00001900D920020E1F7089510E0CCE6D0E00B
:101EC00004C0FE010E94370D2196CD36D107C9F717
:041ED000F894FFCFB4
:101ED40000005804800000000000FF00B3069700D3
:101EE4004601C800A600BA00000000008B01B3063A
:101EF40019028A01DF01F70172014D6F76652041F5
:101F040063747561746F7220566572746963616C71
:101F14003A20004D6F7665204163747561746F7269
:101F240020486F72697A6F6E74616C3A2000577240
:101F34006F6E6720436F6D6D616E6400564D445043
:101F4400565F317C315F564D4450560D0A00416353
:101F5400747561746F7220566572746963616C2064
:101F64004D6F7665643A20004163747561746F72D5
:101F740020486F72697A6F6E74616C204D6F76655C
:041F8400643A20009B
:00000001FF
