:100000000C946D000C9495000C9495000C94AD0626
:100010000C94AD060C94AD060C9495000C949500D0
:100020000C9495000C9495000C9495000C949500FC
:100030000C9495000C9495000C9495000C949500EC
:100040000C9463060C9495000C94AC030C948603FA
:100050000C9495000C9495000C9495000C949500CC
:100060000C9495000C9495009B04A104AB04B90476
:10007000BB04C104CB04D904EB04ED040000000070
:10008000240027002A0000000008000201000003ED
:100090000407000000000000000000000000250030
:1000A00028002B0000000000230026002900040483
:1000B0000404040404040202020202020303030310
:1000C00003030102040810204080010204081020EC
:1000D000010204081020480B200B11241FBECFEF93
:1000E000D8E0DEBFCDBF24E0A8EDB1E001C01D9295
:1000F000AE37B207E1F711E0A0E0B1E0E2E6FFE1E0
:1001000002C005900D92A83DB107D9F710E0CCE6EA
:10011000D0E004C02197FE010E947E0DCB36D107AE
:10012000C9F70E9460090C94A40F0C940000FC0114
:10013000538D448D252F30E0842F90E0821B930B4C
:10014000541710F0CF96089501970895FC01918DF2
:10015000828D981761F0828DDF01A80FB11D5D9629
:100160008C91928D9F5F9F73928F90E008958FEF97
:100170009FEF0895FC01918D828D981731F0828D4B
:10018000E80FF11D858D90E008958FEF9FEF0895A2
:10019000FC01918D228D892F90E0805C9F4F821B06
:1001A00091098F73992708958BE292E00E94C8000D
:1001B00021E0892B09F420E0822F0895FC01848D31
:1001C000DF01A80FB11DA35ABF4F2C91848D90E081
:1001D00001968F739927848FA689B7892C93A0895C
:1001E000B1898C9180648C93938D848D981306C013
:1001F0000288F389E02D80818F7D80830895EF92BE
:10020000FF920F931F93CF93DF93EC0181E0888FD0
:100210009B8D8C8D981305C0E889F989808185FDB7
:1002200024C0F62E0B8D10E00F5F1F4F0F731127A8
:10023000E02E8C8DE8120CC00FB607FCFACFE889CF
:10024000F989808185FFF5CFCE010E94DE00F1CFD4
:100250008B8DFE01E80FF11DE35AFF4FF0820B8FEB
:10026000EA89FB898081806207C0EE89FF8960830B
:10027000E889F98980818064808381E090E0DF9162
:10028000CF911F910F91FF90EF900895CF93DF933F
:10029000EC01888D8823C9F0EA89FB89808185FD7E
:1002A00005C0A889B9898C9186FD0FC00FB607FCDF
:1002B000F5CF808185FFF2CFA889B9898C9185FF20
:1002C000EDCFCE010E94DE00E7CFDF91CF91089500
:1002D00080E090E0892B29F00E94D40081110C94D9
:1002E0000000089520912502309126022817390731
:1002F00071F49091230280912402981741F0E091CB
:100300002302F0E0E252FE4F808190E008958FEFEB
:100310009FEF089508951F93CF93DF93DC015C96C0
:100320002D913C915D972115310539F481E090E0E4
:1003300013969C938E9312973DC05196ED91FC912C
:10034000529750969C915097892F80951FB75E9633
:100350004C915E9741FB772770F941FD6095F894C9
:100360004081772311F0492B01C048234083E901E4
:100370002197F1F748E0508160FF02C0592B01C07E
:1003800058235083E9012197F1F76695415099F779
:10039000772321F090818923808303C08081982B6B
:1003A00090831FBF5C968D919C915D970197F1F7AB
:1003B00021E030E0C901DF91CF911F910895209194
:1003C0002502309126022817390771F48091240202
:1003D0002091230290E0805C9F4F821B910960E492
:1003E00070E00E944B0D089580E090E00895209108
:1003F00025023091260228173907B9F4909123027B
:1004000080912402981789F0E0912302F0E0E252F3
:10041000FE4F80812091230230E02F5F3F4F2F73EA
:1004200033272093230290E008958FEF9FEF0895E4
:10043000089580E090E008950E948F0F8F929F9220
:10044000AF92BF92CF92DF92EF92FF921F93CF9322
:10045000DF93CDB7DEB728970FB6F894DEBF0FBE97
:10046000CDBF812C37E8932E33E9A32E33E0B32E92
:1004700011E087E294E00E94DF0161EA71E0181662
:1004800019060CF027C1CE0101960E94AB080E940C
:10049000B40797FD1FC08A309105E1F08F8318865D
:1004A000ED80FE808FEFE81AF80AB701CE010196C1
:1004B0000E943308882359F329813A818D819E81D6
:1004C000BE01695F7F4F820F931F0E949D0FFE82C6
:1004D000ED82DDCFBE016F5F7F4F80E294E00E942E
:1004E000FA07CE0101960E94A6086091240470913B
:1004F00025046115710509F472C0E0912004F091A2
:100500002104309709F46BC08081833509F067C0FE
:10051000CE0101960E94C008BE016F5F7F4F84E14B
:1005200094E00E94FA07CE0101960E94A6088091ED
:10053000140490911504009719F00E94B60C03C0A2
:1005400060E070E0CB017093010160930001CB018A
:10055000880F991F880F991F6C01E12CF12C2091B5
:10056000660430916704032E000C440B550BC50143
:10057000B4010E945F0DCA01B901A70196010E9452
:100580005F0D20936204309363044093640450939E
:10059000650420914C0430914D04032E000C440B53
:1005A000550BC501B4010E945F0DCA01B901A70135
:1005B00096010E945F0D20934804309349044093B4
:1005C0004A0450934B046CE271E08BE292E00E948B
:1005D000030980910001909101010E941809609126
:1005E0002404709125046115710509F466C0E09139
:1005F0002004F0912104309709F45FC08081863592
:1006000061F51093DD01CE0101960E94C008BE0184
:100610006F5F7F4F8AE194E00E94FA07CE01019656
:100620000E94A60880911A0490911B04009719F06B
:100630000E94B60C03C060E070E0CB017093D9015A
:100640006093D8016EE471E08BE292E00E940309AE
:100650008091D8019091D9012DC0883471F5109303
:10066000DC01CE0101960E94C008BE016F5F7F4F82
:100670008AE194E00E94FA07CE0101960E94A60842
:1006800080911A0490911B04009719F00E94B60CF7
:1006900003C060E070E0CB017093DB016093DA018E
:1006A00067E671E08BE292E00E9403098091DA0133
:1006B0009091DB010E941809DCCE62E871E08BE2C8
:1006C00092E00E9403096FE971E08BE292E00E94E0
:1006D0000309CFCE80E294E00E94850861EA71E0D0
:1006E0008AE194E00E94850828960FB6F894DEBF50
:1006F0000FBECDBFDF91CF911F91FF90EF90DF90A4
:10070000CF90BF90AF909F908F9008951F920F92BF
:100710000FB60F9211242F933F934F935F936F93D4
:100720007F938F939F93AF93BF93EF93FF938BE24E
:1007300092E00E94DE00FF91EF91BF91AF919F91F7
:100740008F917F916F915F914F913F912F910F907A
:100750000FBE0F901F9018951F920F920FB60F9219
:1007600011242F938F939F93EF93FF93E0913B027C
:10077000F0913C028081E0914102F091420282FDC1
:1007800012C09081809144028F5F8F732091450247
:10079000821751F0E0914402F0E0E55DFD4F958F46
:1007A0008093440201C08081FF91EF919F918F91CE
:1007B0002F910F900FBE0F901F90189590E0FC01A5
:1007C000EA57FF4F3491FC01EE53FF4F2491FC0197
:1007D000E255FF4FE491EE2309F43BC0332339F196
:1007E000333091F038F43130A9F0323001F584B56E
:1007F0008F7D12C0373091F03830A1F03430B9F429
:10080000809180008F7D03C0809180008F778093DE
:1008100080000DC084B58F7784BD09C08091B00081
:100820008F7703C08091B0008F7D8093B000F0E09F
:10083000EE0FFF1FE656FF4FA591B4918FB7F894C6
:10084000EC91611103C020952E2301C02E2B2C9317
:100850008FBF08950F931F93CF93DF93EC018B010C
:10086000888599850297F1F46130710569F024F467
:10087000672BC1F460E009C06230710559F0633044
:10088000710581F460E007C061E08C850E94DE03A1
:1008900061E005C061E08C850E94DE0360E08E852A
:1008A0000E94DE03888599850497B9F5013011050A
:1008B000B1F04CF40115110581F561E08C850E94C1
:1008C000DE0360E011C002301105B9F003301105FC
:1008D00021F561E08C850E94DE0360E013C060E0DA
:1008E0008C850E94DE0361E08E850E94DE0361E05C
:1008F00088890E94DE0360E00DC060E08C850E9464
:10090000DE0361E08E850E94DE0360E088890E943C
:10091000DE0361E08A890E94DE0388859985059758
:1009200009F073C00A30110508F06FC0F801EC5CE3
:10093000FF4F0C947E0D60E08C850E94DE0361E029
:1009400051C060E08C850E94DE0361E08E850E94CC
:10095000DE0360E04BC060E08C850E94DE0361E056
:100960008E850E94DE0360E088890E94DE0361E0DC
:1009700041C060E001C061E08C850E94DE0361E05F
:1009800005C061E08C850E94DE0360E08E850E94D8
:10099000DE0360E009C061E08C850E94DE0360E058
:1009A0008E850E94DE0361E088890E94DE0361E09B
:1009B0000DC061E08C850E94DE0360E08E850E94A0
:1009C000DE0361E088890E94DE0360E08A890E947C
:1009D000DE0360E013C061E001C060E08C850E942E
:1009E000DE0360E08E850E94DE0361E088890E945C
:1009F000DE0360E08A890E94DE0361E08C89DF917A
:100A0000CF911F910F910C94DE03DF91CF911F9135
:100A10000F910895CF93DF9390E0FC01EE53FF4FC9
:100A20002491FC01E255FF4F8491882361F190E00D
:100A3000880F991FFC01E458FF4FC591D491FC0128
:100A4000E656FF4FA591B491611109C09FB7F89484
:100A50008881209582238883EC912E230BC06230FD
:100A600061F49FB7F8943881822F8095832388831F
:100A7000EC912E2B2C939FBF06C08FB7F894E88182
:100A80002E2B28838FBFDF91CF9108953FB7F89425
:100A900080911F0290912002A0912102B091220228
:100AA00026B5A89B05C02F3F19F00196A11DB11DC9
:100AB0003FBFBA2FA92F982F8827820F911DA11D04
:100AC000B11DBC01CD0142E0660F771F881F991F41
:100AD0004A95D1F708958F929F92AF92BF92CF928D
:100AE000DF92EF92FF926B017C010E9446054B0161
:100AF0005C01C114D104E104F104F1F00E94460547
:100B0000DC01CB0188199909AA09BB09883E9340E9
:100B1000A105B10570F321E0C21AD108E108F1087E
:100B200088EE880E83E0981EA11CB11CC114D1046C
:100B3000E104F10419F7DDCFFF90EF90DF90CF9043
:100B4000BF90AF909F908F9008954F925F926F9259
:100B50007F928F929F92AF92BF92CF92DF92EF924D
:100B6000FF920F931F93CF93DF93EC018B0177FFDD
:100B700004C000271127061B170B161617062CF4A6
:100B800081E090E09983888304C0672B11F019827B
:100B9000188284E0E82EF12C9AE0C92ED12C0115A0
:100BA000110509F449C00E9446058E889F88A88CCB
:100BB000B98C2B013C01481859086A087B088A80C7
:100BC0009B80AC80BD80481459046A047B0438F3D0
:100BD0006E8B7F8B888F998F288139818A859B8541
:100BE0002130310559F401969B878A872E813F81F8
:100BF0008217930771F41B861A860BC0892B21F488
:100C00008E819F819B878A878A859B8501979B8799
:100C10008A8701501109288539858A859B85253069
:100C2000310511F4B60101C0B7010E944B0DBC01A2
:100C3000CE010E942A04B3CFDF91CF911F910F9173
:100C4000FF90EF90DF90CF90BF90AF909F908F90EC
:100C50007F906F905F904F9008958091DD01882381
:100C6000B9F06091D8017091D90180E694E00E94BA
:100C7000A50562EA71E08BE292E00E94030980918F
:100C8000D8019091D9010E9418091092DD010895B0
:100C90008091DC018823B1F06091DA017091DB0171
:100CA00086E494E00E94A5056CEB71E08BE292E093
:100CB0000E9403098091DA019091DB010E941809DA
:100CC0001092DC0108951F920F920FB60F9211241B
:100CD0002F933F938F939F93AF93BF93809127025E
:100CE00090912802A0912902B0912A0230911E020F
:100CF00023E0230F2D3720F40196A11DB11D05C05F
:100D000026E8230F0296A11DB11D20931E02809399
:100D1000270290932802A0932902B0932A0280917F
:100D20001F0290912002A0912102B091220201960F
:100D3000A11DB11D80931F0290932002A093210258
:100D4000B0932202BF91AF919F918F913F912F91CC
:100D50000F900FBE0F901F9018951F920F920FB615
:100D60000F9211242F933F934F935F936F937F9331
:100D70008F939F93AF93BF93EF93FF93E0912502DF
:100D8000F0912602309709F451C0968DA685B7855B
:100D9000858591FF04C09C91892329F447C09C91CB
:100DA000892309F043C0A389B4899C9185898095E2
:100DB00089238C93868997890197F1F7608D718DCE
:100DC000A685B785558538E020E0CB010197F1F77E
:100DD000822F90E095958795282F4C91452309F017
:100DE0002068315091F7868D81FD209580912402F5
:100DF00090E001968F73992730912302381749F0BC
:100E0000A0912402B0E0A252BE4F2C938093240202
:100E100003C0868D8160868F828D938D0197F1F757
:100E2000A389B4899C918589892B8C93FF91EF913B
:100E3000BF91AF919F918F917F916F915F914F91F2
:100E40003F912F910F900FBE0F901F90189508950E
:100E5000CF92DF92EF92FF920F931F93CF93DF9386
:100E60006C017A018B01C0E0D0E0CE15DF0589F07E
:100E7000D8016D918D01D601ED91FC910190F08129
:100E8000E02DC6010995892B11F47E0102C021963F
:100E9000ECCFC701DF91CF911F910F91FF90EF90A1
:100EA000DF90CF900895EBE2F2E0A089B18982E073
:100EB0008C93A485B5851C92A685B78580E18C931B
:100EC000108EA489B58986E08C93A289B3898C9110
:100ED00080618C93A289B3898C9188608C93A2895C
:100EE000B3898C9180688C930288F389E02D80818E
:100EF0008F7D808308950F931F93CF93DF93ECE151
:100F0000F3E020E030E04081442301F1E9012DE0ED
:100F10002C9F80012D9F100D1124005F1C4F21E09C
:100F2000F8012287918380830E944605F801668339
:100F300077838087918780E29EE4A0E0B0E082839F
:100F40009383A483B5831386148608C02F5F3F4F15
:100F50003D9624313105B9F6CFEFDFEFCE01DF91B9
:100F6000CF911F910F9108952FB7F8948091270288
:100F700090912802A0912902B0912A022FBF80935C
:100F80002F0490933004A0933104B0933204E09185
:100F90002704F09128040284F385E02D87E294E091
:100FA000099597FF26C02FB7F8948091270290915A
:100FB0002802A0912902B0912A022FBF40912F044C
:100FC000509130046091310470913204841B950B70
:100FD000A60BB70B40912B0450912C0460912D046B
:100FE00070912E0484179507A607B70780F28FEF3C
:100FF0009FEF08950F931F93CF93DF938C01EB0125
:10100000FC01808191810097B1F06881798161153F
:10101000710579F0428153812C813D81421753073C
:1010200040F00E949D0F8C819D81F80195838483FF
:1010300013C00E942D0E88819981F80191838083CD
:101040008A819B81938382838C819D819583848314
:10105000198218821B821A821D821C82DF91CF9115
:101060001F910F9108950F931F93CF93DF93EC017E
:1010700088819981009729F02A813B8126173707BB
:1010800088F48B016F5F7F4F0E94C50E009761F05F
:10109000998388831B830A832C813D81232B11F440
:1010A000FC01108281E001C080E0DF91CF911F91AF
:1010B0000F910895EF92FF920F931F93CF93DF93B9
:1010C000EC017B018A01BA010E9433082881398131
:1010D00081110DC02115310519F0C9010E942D0E95
:1010E000198218821D821C821B821A8206C01D83EF
:1010F0000C83B701C9010E949D0FCE01DF91CF91F2
:101100001F910F91FF90EF900895CF93DF93EC0123
:101110006115710559F0FB0101900020E9F7319745
:10112000AF01461B570B0E945A080CC08881998159
:10113000009711F00E942D0E198218821D821C82C8
:101140001B821A82CE01DF91CF910895FC0180812C
:1011500091810C942D0EFC01118210821382128257
:10116000158214826115710551F0FB010190002078
:10117000E9F73197AF01461B570B0C945A080895B5
:10118000DF92EF92FF920F931F93CF93DF937C0137
:10119000EB01209729F400E010E0C1E0D0E002C0AC
:1011A00001E010E061EA71E0C7010E94AB088091A4
:1011B00024049091250408171907E0F48C179D0763
:1011C00008F4EC01E0912004F0912104EC0FFD1FE4
:1011D000D08010826091200470912104600F711FF3
:1011E000C7010E9485088091200490912104C80FB6
:1011F000D91FD882C701DF91CF911F910F91FF9026
:10120000EF90DF9008956115710579F0FB01019071
:101210000020E9F73197AF01461B570BDC01ED9138
:10122000FC910280F381E02D099480E090E0089524
:10123000CF92DF92EF92FF920F931F93CF93DF93A2
:10124000CDB7DEB7A1970FB6F894DEBF0FBECDBF06
:101250009C0140E050E019A28E010F5D1F4F8AE013
:10126000C82ED12CE12CF12CCA01B901A70196019D
:101270000E94F20C605DF80162938F012115310527
:101280004105510589F7BF018BE292E00E940309F5
:101290008C016FE971E08BE292E00E940309800FFC
:1012A000911FA1960FB6F894DEBF0FBECDBFDF91A0
:1012B000CF911F910F91FF90EF90DF90CF90089505
:1012C000789484B5826084BD84B5816084BD85B521
:1012D000826085BD85B5816085BD80916E0081602D
:1012E00080936E00109281008091810082608093D3
:1012F00081008091810081608093810080918000D5
:101300008160809380008091B10084608093B100FF
:101310008091B00081608093B00080917A008460F9
:1013200080937A0080917A00826080937A00809125
:101330007A00816080937A0080917A00806880933F
:101340007A001092C10010920C0310920D031092BB
:101350000E0310920F031092CA021092CB02109249
:10136000CC021092CD0268EB7BE080E090E00E941E
:101370006B058BE292E090930B0380930A030E942B
:1013800053072FB7F8948091270290912802A091DB
:101390002902B0912A022FBF8093CA029093CB02F8
:1013A000A093CC02B093CD0260E971E080910A0372
:1013B00090910B030E9403096AE070E080E090E0E6
:1013C0000E946B0581E08093DE02C0900001D09006
:1013D0000101CC0CDD1CCC0CDD1CE12CF12C20918E
:1013E000660430916704032E000C440B550B812CCE
:1013F00097E8992E93E9A92E93E0B92EC501B4017F
:101400000E945F0DCA01B901A70196010E945F0DFC
:101410002093620430936304409364045093650402
:1014200020914C0430914D04032E000C440B550BBD
:10143000C501B4010E945F0DCA01B901A70196015F
:101440000E945F0D209348043093490440934A045E
:1014500050934B040E94530710924204109241048F
:101460001092400410923F0410923E0410923D04EA
:101470008FE190E09093440480934304909133046F
:10148000963108F057C021E030E030933E042093BD
:101490003D042DE130E03093400420933F042DE0E3
:1014A00030E030934204209341042091680098304A
:1014B00050F031E09E3008F430E081E001C0880F48
:1014C0003A95EAF701C084E0822B80936800983057
:1014D00038F09E3040F0963148F020E030E008C00F
:1014E0002DE630E005C02BE630E002C02CE630E00F
:1014F00030933B0420933A04983030F481E001C0EB
:10150000880F9A95EAF70EC0292F30E09E3018F424
:101510002850310902C02E50310981E001C0880FE6
:101520002A95EAF780933C04809143049091440407
:101530000197F1F78091410490914204892B49F180
:10154000E0912502F091260224E0E732F20709F14A
:10155000309739F0A389B4899C9185898095892336
:101560008C93809145048E7F8093450410922402D1
:101570001092230287E294E0909326028093250242
:10158000E0913A04F0913B04908180913C04892BD6
:10159000808380E197E2A0E0B0E080932B049093F9
:1015A0002C04A0932D04B0932E048DE296E00E94AB
:1015B0007B078EE192E00E947B07DD24D3940E949A
:1015C00046050CE113E0C0E1D3E0F80120812111D0
:1015D0002DC07801F2E0EF1AF108F70120812223F3
:1015E00029F18E809F80A884B9842B013C01481882
:1015F00059086A087B088A809B80AC80BD8084146F
:101600009504A604B70490F46E837F838887998736
:10161000E881F9810995F80131978081882321F0CB
:10162000F7011082F801D0820E944605035F1F4F28
:101630002D96F4E0C431DF0741F60E946801BFCF68
:1016400084E194E00E94A6088AE194E00E94A60842
:1016500080E294E00E94A6088EE191E09093280435
:10166000809327048091250290912602875294400E
:1016700071F4E0913A04F0913B04908180913C0434
:101680008095892380831092260210922502089566
:10169000CF92DF92EF92FF920F931F93CF93DF933E
:1016A00010922E0210922D0298EEC92E93E0D92EA0
:1016B000E12CF12CC0922F02D0923002E092310244
:1016C000F09232028CE091E090932C0280932B02F6
:1016D00085EC90E0909338028093370284EC90E0A0
:1016E00090933A028093390280EC90E090933C0210
:1016F00080933B0281EC90E090933E0280933D0208
:1017000082EC90E09093400280933F0286EC90E060
:10171000909342028093410210924402109245023B
:1017200010924602109247021092CE021092CF02FF
:101730001092D0021092D1021092D2021092D302D3
:101740001092D4021092D5021092D6021092D702B3
:101750001092D8021092D9021092DA021092DB0293
:101760001092DC021092DD0210926B0410926A0457
:101770001092610410926004109276041092770423
:10178000109278041092790400E81CE0109367042A
:1017900000936604C2E0D0E0D0936D04C0936C0463
:1017A00083E090E090936F0480936E0461E082E0A8
:1017B0000E940A0561E080916E040E940A05109261
:1017C00071041092700410927304109272041092BB
:1017D000750410927404D0936904C0936804109245
:1017E0005104109250041092470410924604109233
:1017F0005C0410925D0410925E0410925F041093DA
:101800004D0400934C0484E090E090935304809343
:10181000520485E090E0909355048093540461E075
:1018200084E00E940A0561E0809154040E940A0548
:1018300010925704109256041092590410925804B2
:1018400010925B0410925A04D0934F04C0934E043C
:1018500010922A0410922904C0922B04D0922C04D6
:10186000E0922D04F0922E048EE191E090932804F2
:101870008093270410923E0410923D04109240047D
:1018800010923F04109242041092410410924404BA
:1018900010924304609145046E7F6D7F6093450410
:1018A0006695617081E0682787E00E94DE0361E051
:1018B00087E00E940A05E9ECF0E0E491E093370448
:1018C000E5EBF0E0E491F0E0EE0FFF1FE656FF4F8E
:1018D00085919491909339048093380460E086E078
:1018E0000E940A058091450481FD04C061E086E004
:1018F0000E94DE0386E080933304E8ECF0E0E4919C
:10190000E0933404E4EBF0E0E491F0E0EE0FFF1F2D
:10191000EC55FF4F85919491909336048093350454
:1019200080E090E021E0FC01E05FFC4F24870D9611
:10193000843031E09307B9F761EA71E080E294E026
:101940000E94AB0861EA71E08AE194E00E94AB0872
:1019500061EA71E084E194E0DF91CF911F910F91F2
:10196000FF90EF90DF90CF900C94AB081F93FC0199
:1019700099278827BC01E89411911032E9F31930B6
:1019800010F01E30C8F31B3251F01D3249F4689438
:1019900006C00E94DD0C610F711D811D911D11910A
:1019A00010531A30B0F33EF4909580957095619580
:1019B0007F4F8F4F9F4F1F910895592F482F372FDB
:1019C000262F660F771F881F991F660F771F881FA6
:1019D000991F620F731F841F951F660F771F881F43
:1019E000991F0895A1E21A2EAA1BBB1BFD010DC071
:1019F000AA1FBB1FEE1FFF1FA217B307E407F507BF
:101A000020F0A21BB30BE40BF50B661F771F881F9A
:101A1000991F1A9469F760957095809590959B0130
:101A2000AC01BD01CF0108952F923F924F925F927A
:101A30006F927F928F929F92AF92BF92CF92DF92DE
:101A4000EF92FF920F931F93CF93DF93CDB7DEB743
:101A5000CA1BDB0B0FB6F894DEBF0FBECDBF0994D7
:101A60002A88398848885F846E847D848C849B842E
:101A7000AA84B984C884DF80EE80FD800C811B813C
:101A8000AA81B981CE0FD11D0FB6F894DEBF0FBE6B
:101A9000CDBFED01089597FB072E16F4009407D0F3
:101AA00077FD09D00E94840D07FC05D03EF4909587
:101AB00081959F4F0895709561957F4F0895052EEC
:101AC00097FB1EF400940E94760D57FD07D00E94EC
:101AD000F20C07FC03D04EF40C94760D5095409513
:101AE000309521953F4F4F4F5F4F089590958095CA
:101AF000709561957F4F8F4F9F4F0895EE0FFF1F99
:101B00000590F491E02D0994AA1BBB1B51E107C07D
:101B1000AA1FBB1FA617B70710F0A61BB70B881F7D
:101B2000991F5A95A9F780959095BC01CD0108950C
:101B3000CF93DF938230910510F482E090E0E09142
:101B40007C04F0917D0420E030E0C0E0D0E03097EC
:101B500011F14081518148175907C0F048175907C2
:101B600061F482819381209719F09B838A832BC033
:101B700090937D0480937C0426C02115310519F0D3
:101B80004217530718F49A01BE01DF01EF010280EA
:101B9000F381E02DDCCF2115310509F1281B390B2C
:101BA0002430310590F412968D919C911397611514
:101BB000710521F0FB019383828304C090937D041F
:101BC00080937C04FD01329644C0FD01E20FF31FB7
:101BD00081939193225031092D933C933AC02091E7
:101BE0007A0430917B04232B41F42091040130913D
:101BF000050130937B0420937A04209102013091F7
:101C000003012115310541F42DB73EB7409106017E
:101C100050910701241B350BE0917A04F0917B046D
:101C2000E217F307A0F42E1B3F0B2817390778F0B3
:101C3000AC014E5F5F4F2417350748F04E0F5F1F12
:101C400050937B0440937A048193919302C0E0E027
:101C5000F0E0CF01DF91CF9108950F931F93CF93C1
:101C6000DF93009709F48CC0FC0132971382128233
:101C700000917C0410917D040115110581F42081EF
:101C80003181820F931F20917A0430917B042817B1
:101C9000390779F5F0937B04E0937A0471C0D80199
:101CA00040E050E0AE17BF0750F412962D913C91E2
:101CB0001397AD012115310509F1D901F3CF9D012C
:101CC000DA013383228360817181860F971F821727
:101CD000930769F4EC0128813981260F371F2E5FA5
:101CE0003F4F318320838A819B8193838283452B5D
:101CF00029F4F0937D04E0937C0442C01396FC9396
:101D0000EE931297ED01499159919E01240F351FD1
:101D1000E217F30771F480819181840F951F029679
:101D200011969C938E938281938113969C938E93AC
:101D30001297E0E0F0E0D80112968D919C911397F4
:101D4000009719F0F8018C01F6CF8D919C919801C4
:101D50002E5F3F4F820F931F20917A0430917B04B6
:101D60002817390769F4309729F410927D041092EE
:101D70007C0402C01382128210937B0400937A04C5
:101D8000DF91CF911F910F910895A0E0B0E0EBECAF
:101D9000FEE00C94180DEC01009721F4CB010E9499
:101DA000980DB8C0FC01E60FF71F9C0122503109C5
:101DB000E217F30708F4ACC0D9010D911C911197FB
:101DC00006171707B0F00530110508F49FC0C801C9
:101DD00004978617970708F499C002501109061B4B
:101DE000170B019311936D937C93CF010E942D0EDD
:101DF0008DC05B01A01AB10A4C01800E911EA0910A
:101E00007C04B0917D0440E050E0E12CF12C10976F
:101E100009F44AC0A815B905D1F56D907C901197C9
:101E2000630182E0C80ED11CCA14DB0480F1A30157
:101E30004A195B096A0182E0C80ED11C1296BC9057
:101E400012971396AC91B5E0CB16D10440F0B28254
:101E5000A38351834083D9016D937C930AC00E5FA5
:101E60001F4FC301800F911FF90191838083EB2DD8
:101E7000FA2FE114F10431F0D7011396FC93EE939D
:101E8000129744C0F0937D04E0937C043FC08D9191
:101E90009C9111974817590708F4AC017D011296DF
:101EA0000D90BC91A02DB3CF80917A0490917B04CA
:101EB00088159905E1F446175707C8F48091020187
:101EC00090910301009741F48DB79EB740910601B0
:101ED00050910701841B950BE817F907C8F4F0939C
:101EE0007B04E0937A04F901718360830FC0CB0116
:101EF0000E94980D7C01009759F0A801BE010E9434
:101F0000940FCE010E942D0EC70104C0CE0102C065
:101F100080E090E0CDB7DEB7EEE00C94340D81E0C8
:101F200090E0F8940C94A40FFB01DC0102C0019036
:101F30000D9241505040D8F70895FB01DC0101900B
:101F40000D920020E1F7089510E0CCE6D0E004C047
:101F5000FE010E947E0D2196CD36D107C9F7F89477
:021F6000FFCFB1
:101F62003C0000007E04800000000000FF00280703
:101F720097004601C800A600BA00000000008B01CD
:101F8200280719028A01DF01F70172015265766F93
:101F92006C7574696F6E20506572204D696E757430
:101FA20065206973205365742061733A20004D6F78
:101FB2007665204163747561746F72205665727420
:101FC2006963616C3A20004D6F76652041637475D8
:101FD20061746F7220486F72697A6F6E74616C3AC5
:101FE200200057726F6E6720436F6D6D616E6400E3
:101FF200564D4450565F317C315F564D4450560D1C
:102002000A004163747561746F7220566572746957
:1020120063616C204D6F7665643A2000416374758C
:1020220061746F7220486F72697A6F6E74616C208E
:082032004D6F7665643A200051
:00000001FF
